:020000020000FC
:1000000000C0A0E0A5B940E050E060E000E204B923
:1000100000E007B900000E94C7000E94E3000E94B0
:10002000EA000E94F100209178003091790040E0D0
:1000300050E060E070E3022F0E94FD000E94B700D4
:1000400010E3410F510F610F062F0E94D400052FBE
:100050000E94D400042F0E94D4000EE20E94D4001B
:10006000072F0E94D4000CE70E94D40040E050E02B
:1000700060E070E3032F0E94FD000E94B70010E3D0
:10008000410F510F610F062F0E94D400052F0E94CF
:10009000D400042F0E94D4000EE20E94D400072F47
:1000A0000E94D4000CE70E94D4000E94DC000E9451
:1000B000EA000E94F100209178003091790040E040
:1000C00050E060E070E3022F0E94B70010E3410FA0
:1000D000510F610F062F0E94D400052F0E94D400FB
:1000E000042F0E94D4000CE70E94D40040E050E0AE
:1000F00060E070E3032F0E94B70010E3410F510F3F
:10010000610F062F0E94D400052F0E94D400042FF7
:100110000E94D4000CE70E94D4000E94030140E03A
:1001200050E060E070E3082F0E94B70010E3410F39
:10013000042F0E94D4000CE70E94D4000E94090101
:1001400040E050E060E070E3092F0E94B70010E348
:10015000410F042F0E94D4000CE70E94D4000AE053
:100160000E94D4000E94E3000E94260156CF04366C
:1001700018F063950456FBCF0A3018F053950A50D7
:10018000FBCF013018F043950150FBCF089506E0F6
:100190000093C20010E008E01093C5000093C40073
:1001A00008E10093C10008951091C00015FB0EF006
:1001B000FBCF0093C600089500E400937C0007E89D
:1001C00000937A00089501E400937C0007E800930F
:1001D0007A00089500E410917A00102B10937A00B1
:1001E000089510917A0014FF0C94F10000E1109131
:1001F0007A00102B10937A000895069510F00000F5
:10020000089575E3089580E0189981E000000000EA
:10021000089590E01D9991E000000000089513E614
:1002200027EC000000000000000000002A95C9F73C
:100230001A95B1F708950E9426010E9426010E9496
:1002400026010E9426010E94260108950E940F01A6
:100250000E940F010E940F010E940F010E940F01D6
:100260000E940F010E940F010E940F010E940F01C6
:060270000E940F01089539
:00000001FF
