:020000020000FC
:1000000000C054E068E070E180E290E4A0E8B1E074
:10001000C2E0D4E0E8E05AB96AB97AB98AB99AB9C3
:10002000AAB9BAB9C4B9D4B9E4B940E04BB90E948D
:100030003F005BB90E943F004BB96BB90E943F0083
:100040004BB97BB90E943F004BB98BB90E943F006E
:100050004BB99BB90E943F004BB9ABB90E943F001E
:100060004BB9BBB90E943F004BB9C5B90E943F00D4
:1000700045B9D5B90E943F0045B9E5B9C2CF33E6CD
:1000800013E627EC000000000000000000002A95A5
:0C009000C9F71A95B1F73A9599F7089551
:00000001FF
