:020000020000FC
:1000000000C054E068E070E180E290E4A0E8B1E074
:10001000C2E0E8E040E0FFEFFAB9F4B90E944C001A
:100020005BB90E944C006BB90E944C007BB90E94E6
:100030004C008BB90E944C009BB90E944C00ABB99C
:100040000E944C004BB9B5B90E944C00C5B90E9442
:100050004C0055B90E944C00E5B90E943000D1CF48
:100060000E944C0055B90E944C00C5B90E944C003A
:100070004BB9B5B90E944C0045B9ABB90E944C00D0
:100080009BB90E944C008BB90E944C007BB90E9426
:100090004C006BB945B9089533E613E627EC000030
:1000A00000000000000000002A95C9F71A95B1F77A
:0600B0003A9599F708954E
:00000001FF
