:020000020000FC
:1000000000C054E068E070E180E290E4A0E8B1E074
:10001000C2E0E8E040E05AB96AB97AB98AB99AB957
:10002000AAB9B4B9C4B954B9E4B90E9455005BB9CE
:100030000E9455006BB90E9455007BB90E94550083
:100040008BB90E9455009BB90E945500ABB90E9424
:1000500055004BB9B5B90E945500C5B90E9455006D
:1000600055B90E945500E5B90E94550045B90E9456
:100070003A00C7CF0E94550055B90E945500C5B936
:100080000E9455004BB9B5B90E945500ABB90E940A
:1000900055009BB90E9455008BB90E9455007BB951
:1000A0000E9455006BB945B9089533E613E627EC75
:1000B000000000000000000000002A95C9F71A9512
:0800C000B1F73A9599F7089594
:00000001FF
