:020000020000FC
:1000000000C00E9444000E94440050E360E370E39B
:100010000E942300022F0E9431000E945100052FF0
:100020000E945100062F0E945100072F8AE00E9473
:100030005100082F00E600937C0000E800937A004E
:100040000E945900089500EC00937A000E94590024
:1000500000917A0006FDFCCF109178002091790084
:1000600008950E9437000A95003079F2FACF53952F
:100070003A3309F008956395AA3311F020E3089507
:100080007395A0E320E3089506E00093C20010E01A
:1000900007E61093C5000093C40008E10093C10077
:1000A00008951091C00015FB0EF0FBCF0093C60021
:1000B000089569E071E087EC000000000000000096
:1000C00000008A95C9F77A95B1F76A9599F708956E
:00000001FF
